{
  "_format": "hh-sol-artifact-1",
  "contractName": "CreateNFT",
  "sourceName": "contracts/createNFT.sol",
  "abi": [
    {
      "inputs": [],
      "stateMutability": "nonpayable",
      "type": "constructor"
    },
    {
      "anonymous": false,
      "inputs": [
        {
          "indexed": true,
          "internalType": "address",
          "name": "owner",
          "type": "address"
        },
        {
          "indexed": true,
          "internalType": "address",
          "name": "approved",
          "type": "address"
        },
        {
          "indexed": true,
          "internalType": "uint256",
          "name": "tokenId",
          "type": "uint256"
        }
      ],
      "name": "Approval",
      "type": "event"
    },
    {
      "anonymous": false,
      "inputs": [
        {
          "indexed": true,
          "internalType": "address",
          "name": "owner",
          "type": "address"
        },
        {
          "indexed": true,
          "internalType": "address",
          "name": "operator",
          "type": "address"
        },
        {
          "indexed": false,
          "internalType": "bool",
          "name": "approved",
          "type": "bool"
        }
      ],
      "name": "ApprovalForAll",
      "type": "event"
    },
    {
      "anonymous": false,
      "inputs": [
        {
          "indexed": true,
          "internalType": "address",
          "name": "from",
          "type": "address"
        },
        {
          "indexed": true,
          "internalType": "address",
          "name": "to",
          "type": "address"
        },
        {
          "indexed": true,
          "internalType": "uint256",
          "name": "tokenId",
          "type": "uint256"
        }
      ],
      "name": "Transfer",
      "type": "event"
    },
    {
      "inputs": [
        {
          "internalType": "address",
          "name": "to",
          "type": "address"
        },
        {
          "internalType": "uint256",
          "name": "tokenId",
          "type": "uint256"
        }
      ],
      "name": "approve",
      "outputs": [],
      "stateMutability": "nonpayable",
      "type": "function"
    },
    {
      "inputs": [
        {
          "internalType": "address",
          "name": "owner",
          "type": "address"
        }
      ],
      "name": "balanceOf",
      "outputs": [
        {
          "internalType": "uint256",
          "name": "",
          "type": "uint256"
        }
      ],
      "stateMutability": "view",
      "type": "function"
    },
    {
      "inputs": [
        {
          "internalType": "uint256",
          "name": "tokenId",
          "type": "uint256"
        }
      ],
      "name": "getApproved",
      "outputs": [
        {
          "internalType": "address",
          "name": "",
          "type": "address"
        }
      ],
      "stateMutability": "view",
      "type": "function"
    },
    {
      "inputs": [
        {
          "internalType": "address",
          "name": "owner",
          "type": "address"
        },
        {
          "internalType": "address",
          "name": "operator",
          "type": "address"
        }
      ],
      "name": "isApprovedForAll",
      "outputs": [
        {
          "internalType": "bool",
          "name": "",
          "type": "bool"
        }
      ],
      "stateMutability": "view",
      "type": "function"
    },
    {
      "inputs": [],
      "name": "name",
      "outputs": [
        {
          "internalType": "string",
          "name": "",
          "type": "string"
        }
      ],
      "stateMutability": "view",
      "type": "function"
    },
    {
      "inputs": [
        {
          "internalType": "uint256",
          "name": "tokenId",
          "type": "uint256"
        }
      ],
      "name": "ownerOf",
      "outputs": [
        {
          "internalType": "address",
          "name": "",
          "type": "address"
        }
      ],
      "stateMutability": "view",
      "type": "function"
    },
    {
      "inputs": [
        {
          "internalType": "uint256",
          "name": "tokenId",
          "type": "uint256"
        }
      ],
      "name": "pickRandomImage",
      "outputs": [
        {
          "internalType": "string",
          "name": "",
          "type": "string"
        }
      ],
      "stateMutability": "view",
      "type": "function"
    },
    {
      "inputs": [
        {
          "internalType": "address",
          "name": "from",
          "type": "address"
        },
        {
          "internalType": "address",
          "name": "to",
          "type": "address"
        },
        {
          "internalType": "uint256",
          "name": "tokenId",
          "type": "uint256"
        }
      ],
      "name": "safeTransferFrom",
      "outputs": [],
      "stateMutability": "nonpayable",
      "type": "function"
    },
    {
      "inputs": [
        {
          "internalType": "address",
          "name": "from",
          "type": "address"
        },
        {
          "internalType": "address",
          "name": "to",
          "type": "address"
        },
        {
          "internalType": "uint256",
          "name": "tokenId",
          "type": "uint256"
        },
        {
          "internalType": "bytes",
          "name": "data",
          "type": "bytes"
        }
      ],
      "name": "safeTransferFrom",
      "outputs": [],
      "stateMutability": "nonpayable",
      "type": "function"
    },
    {
      "inputs": [
        {
          "internalType": "address",
          "name": "operator",
          "type": "address"
        },
        {
          "internalType": "bool",
          "name": "approved",
          "type": "bool"
        }
      ],
      "name": "setApprovalForAll",
      "outputs": [],
      "stateMutability": "nonpayable",
      "type": "function"
    },
    {
      "inputs": [
        {
          "internalType": "bytes4",
          "name": "interfaceId",
          "type": "bytes4"
        }
      ],
      "name": "supportsInterface",
      "outputs": [
        {
          "internalType": "bool",
          "name": "",
          "type": "bool"
        }
      ],
      "stateMutability": "view",
      "type": "function"
    },
    {
      "inputs": [],
      "name": "symbol",
      "outputs": [
        {
          "internalType": "string",
          "name": "",
          "type": "string"
        }
      ],
      "stateMutability": "view",
      "type": "function"
    },
    {
      "inputs": [
        {
          "internalType": "uint256",
          "name": "tokenId",
          "type": "uint256"
        }
      ],
      "name": "tokenURI",
      "outputs": [
        {
          "internalType": "string",
          "name": "",
          "type": "string"
        }
      ],
      "stateMutability": "view",
      "type": "function"
    },
    {
      "inputs": [
        {
          "internalType": "address",
          "name": "from",
          "type": "address"
        },
        {
          "internalType": "address",
          "name": "to",
          "type": "address"
        },
        {
          "internalType": "uint256",
          "name": "tokenId",
          "type": "uint256"
        }
      ],
      "name": "transferFrom",
      "outputs": [],
      "stateMutability": "nonpayable",
      "type": "function"
    },
    {
      "inputs": [
        {
          "internalType": "string",
          "name": "_build",
          "type": "string"
        },
        {
          "internalType": "string",
          "name": "_contribute",
          "type": "string"
        },
        {
          "internalType": "address",
          "name": "_owner",
          "type": "address"
        }
      ],
      "name": "writeNFT",
      "outputs": [],
      "stateMutability": "nonpayable",
      "type": "function"
    }
  ],
  "bytecode": "0x60806040526040518060600160405280604051806060016040528060388152602001620040f1603891398152602001604051806080016040528060598152602001620041686059913981526020016040518060600160405280603f815260200162004129603f913981525060089060036200007c92919062000248565b503480156200008a57600080fd5b506040518060400160405280600981526020017f436f6d6d69744e465400000000000000000000000000000000000000000000008152506040518060400160405280600681526020017f434f4d4d4954000000000000000000000000000000000000000000000000000081525081600090805190602001906200010f929190620002af565b50806001908051906020019062000128929190620002af565b505050620001766040518060400160405280601c81526020017f56697a75616c697a6520796f757220636f6e747269627574696f6e21000000008152506200017c60201b62000d711760201c565b620004fa565b6200021c816040516024016200019391906200040e565b6040516020818303038152906040527f41304fac000000000000000000000000000000000000000000000000000000007bffffffffffffffffffffffffffffffffffffffffffffffffffffffff19166020820180517bffffffffffffffffffffffffffffffffffffffffffffffffffffffff83818316178352505050506200021f60201b60201c565b50565b60008151905060006a636f6e736f6c652e6c6f679050602083016000808483855afa5050505050565b8280548282559060005260206000209081019282156200029c579160200282015b828111156200029b5782518290805190602001906200028a929190620002af565b509160200191906001019062000269565b5b509050620002ab919062000340565b5090565b828054620002bd9062000484565b90600052602060002090601f016020900481019282620002e157600085556200032d565b82601f10620002fc57805160ff19168380011785556200032d565b828001600101855582156200032d579182015b828111156200032c5782518255916020019190600101906200030f565b5b5090506200033c919062000368565b5090565b5b808211156200036457600081816200035a919062000387565b5060010162000341565b5090565b5b808211156200038357600081600090555060010162000369565b5090565b508054620003959062000484565b6000825580601f10620003a95750620003ca565b601f016020900490600052602060002090810190620003c9919062000368565b5b50565b6000620003da8262000432565b620003e681856200043d565b9350620003f88185602086016200044e565b6200040381620004e9565b840191505092915050565b600060208201905081810360008301526200042a8184620003cd565b905092915050565b600081519050919050565b600082825260208201905092915050565b60005b838110156200046e57808201518184015260208101905062000451565b838111156200047e576000848401525b50505050565b600060028204905060018216806200049d57607f821691505b60208210811415620004b457620004b3620004ba565b5b50919050565b7f4e487b7100000000000000000000000000000000000000000000000000000000600052602260045260246000fd5b6000601f19601f8301169050919050565b613be7806200050a6000396000f3fe608060405234801561001057600080fd5b50600436106100f55760003560e01c80636352211e11610097578063b88d4fde11610066578063b88d4fde14610282578063c87b56dd1461029e578063d13508fc146102ce578063e985e9c5146102fe576100f5565b80636352211e146101e857806370a082311461021857806395d89b4114610248578063a22cb46514610266576100f5565b8063095ea7b3116100d3578063095ea7b31461017857806323b872dd1461019457806342842e0e146101b05780634a6ec05b146101cc576100f5565b806301ffc9a7146100fa57806306fdde031461012a578063081812fc14610148575b600080fd5b610114600480360381019061010f919061247c565b61032e565b6040516101219190612aff565b60405180910390f35b610132610410565b60405161013f9190612b1a565b60405180910390f35b610162600480360381019061015d919061254d565b6104a2565b60405161016f9190612a98565b60405180910390f35b610192600480360381019061018d9190612440565b6104e8565b005b6101ae60048036038101906101a9919061233a565b610600565b005b6101ca60048036038101906101c5919061233a565b610660565b005b6101e660048036038101906101e191906124ce565b610680565b005b61020260048036038101906101fd919061254d565b610838565b60405161020f9190612a98565b60405180910390f35b610232600480360381019061022d91906122d5565b6108ea565b60405161023f9190612cfa565b60405180910390f35b6102506109a2565b60405161025d9190612b1a565b60405180910390f35b610280600480360381019061027b9190612404565b610a34565b005b61029c60048036038101906102979190612389565b610a4a565b005b6102b860048036038101906102b3919061254d565b610aac565b6040516102c59190612b1a565b60405180910390f35b6102e860048036038101906102e3919061254d565b610bbf565b6040516102f59190612b1a565b60405180910390f35b610318600480360381019061031391906122fe565b610cdd565b6040516103259190612aff565b60405180910390f35b60007f80ac58cd000000000000000000000000000000000000000000000000000000007bffffffffffffffffffffffffffffffffffffffffffffffffffffffff1916827bffffffffffffffffffffffffffffffffffffffffffffffffffffffff191614806103f957507f5b5e139f000000000000000000000000000000000000000000000000000000007bffffffffffffffffffffffffffffffffffffffffffffffffffffffff1916827bffffffffffffffffffffffffffffffffffffffffffffffffffffffff1916145b80610409575061040882610e0a565b5b9050919050565b60606000805461041f906131ff565b80601f016020809104026020016040519081016040528092919081815260200182805461044b906131ff565b80156104985780601f1061046d57610100808354040283529160200191610498565b820191906000526020600020905b81548152906001019060200180831161047b57829003601f168201915b5050505050905090565b60006104ad82610e74565b6004600083815260200190815260200160002060009054906101000a900473ffffffffffffffffffffffffffffffffffffffff169050919050565b60006104f382610838565b90508073ffffffffffffffffffffffffffffffffffffffff168373ffffffffffffffffffffffffffffffffffffffff161415610564576040517f08c379a000000000000000000000000000000000000000000000000000000000815260040161055b90612cba565b60405180910390fd5b8073ffffffffffffffffffffffffffffffffffffffff16610583610ebf565b73ffffffffffffffffffffffffffffffffffffffff1614806105b257506105b1816105ac610ebf565b610cdd565b5b6105f1576040517f08c379a00000000000000000000000000000000000000000000000000000000081526004016105e890612c5a565b60405180910390fd5b6105fb8383610ec7565b505050565b61061161060b610ebf565b82610f80565b610650576040517f08c379a000000000000000000000000000000000000000000000000000000000815260040161064790612cda565b60405180910390fd5b61065b838383611015565b505050565b61067b83838360405180602001604052806000815250610a4a565b505050565b600061068c600761127c565b905061069784610d71565b60006106a28361128a565b856040516020016106b4929190612a0f565b6040516020818303038152906040529050600060405180610160016040528061012e8152602001613a1f61012e91399050600081836040516020016106fa929190612983565b60405160208183030381529060405290506000610741888861071b856114bf565b60405160200161072d939291906129b2565b6040516020818303038152906040526114bf565b90506000816040516020016107569190612a54565b60405160208183030381529060405290506107a56040518060400160405280601581526020017f0a2d2d2d2d2d20546f6b656e20555249202d2d2d2d0000000000000000000000815250610d71565b6107ae83610d71565b6107ec6040518060400160405280601581526020017f2d2d2d2d2d2d2d2d2d2d2d2d2d2d2d2d2d2d2d2d0a0000000000000000000000815250610d71565b6107f6878761167d565b610800868261169b565b610823604051806060016040528060258152602001613b4d60259139873361170f565b61082d60076117ae565b505050505050505050565b6000806002600084815260200190815260200160002060009054906101000a900473ffffffffffffffffffffffffffffffffffffffff169050600073ffffffffffffffffffffffffffffffffffffffff168173ffffffffffffffffffffffffffffffffffffffff1614156108e1576040517f08c379a00000000000000000000000000000000000000000000000000000000081526004016108d890612c9a565b60405180910390fd5b80915050919050565b60008073ffffffffffffffffffffffffffffffffffffffff168273ffffffffffffffffffffffffffffffffffffffff16141561095b576040517f08c379a000000000000000000000000000000000000000000000000000000000815260040161095290612c1a565b60405180910390fd5b600360008373ffffffffffffffffffffffffffffffffffffffff1673ffffffffffffffffffffffffffffffffffffffff168152602001908152602001600020549050919050565b6060600180546109b1906131ff565b80601f01602080910402602001604051908101604052809291908181526020018280546109dd906131ff565b8015610a2a5780601f106109ff57610100808354040283529160200191610a2a565b820191906000526020600020905b815481529060010190602001808311610a0d57829003601f168201915b5050505050905090565b610a46610a3f610ebf565b83836117c4565b5050565b610a5b610a55610ebf565b83610f80565b610a9a576040517f08c379a0000000000000000000000000000000000000000000000000000000008152600401610a9190612cda565b60405180910390fd5b610aa684848484611931565b50505050565b6060610ab782610e74565b6000600660008481526020019081526020016000208054610ad7906131ff565b80601f0160208091040260200160405190810160405280929190818152602001828054610b03906131ff565b8015610b505780601f10610b2557610100808354040283529160200191610b50565b820191906000526020600020905b815481529060010190602001808311610b3357829003601f168201915b505050505090506000610b6161198d565b9050600081511415610b77578192505050610bba565b600082511115610bac578082604051602001610b9492919061295f565b60405160208183030381529060405292505050610bba565b610bb5846119a4565b925050505b919050565b60606000610bf3610bcf84611a0c565b604051602001610bdf9190612a76565b604051602081830303815290604052611bb9565b905060088054905081610c0691906132ab565b905060088181548110610c42577f4e487b7100000000000000000000000000000000000000000000000000000000600052603260045260246000fd5b906000526020600020018054610c57906131ff565b80601f0160208091040260200160405190810160405280929190818152602001828054610c83906131ff565b8015610cd05780601f10610ca557610100808354040283529160200191610cd0565b820191906000526020600020905b815481529060010190602001808311610cb357829003601f168201915b5050505050915050919050565b6000600560008473ffffffffffffffffffffffffffffffffffffffff1673ffffffffffffffffffffffffffffffffffffffff16815260200190815260200160002060008373ffffffffffffffffffffffffffffffffffffffff1673ffffffffffffffffffffffffffffffffffffffff16815260200190815260200160002060009054906101000a900460ff16905092915050565b610e0781604051602401610d859190612b1a565b6040516020818303038152906040527f41304fac000000000000000000000000000000000000000000000000000000007bffffffffffffffffffffffffffffffffffffffffffffffffffffffff19166020820180517bffffffffffffffffffffffffffffffffffffffffffffffffffffffff8381831617835250505050611bec565b50565b60007f01ffc9a7000000000000000000000000000000000000000000000000000000007bffffffffffffffffffffffffffffffffffffffffffffffffffffffff1916827bffffffffffffffffffffffffffffffffffffffffffffffffffffffff1916149050919050565b610e7d81611c15565b610ebc576040517f08c379a0000000000000000000000000000000000000000000000000000000008152600401610eb390612c9a565b60405180910390fd5b50565b600033905090565b816004600083815260200190815260200160002060006101000a81548173ffffffffffffffffffffffffffffffffffffffff021916908373ffffffffffffffffffffffffffffffffffffffff160217905550808273ffffffffffffffffffffffffffffffffffffffff16610f3a83610838565b73ffffffffffffffffffffffffffffffffffffffff167f8c5be1e5ebec7d5bd14f71427d1e84f3dd0314c0f7b2291e5b200ac8c7c3b92560405160405180910390a45050565b600080610f8c83610838565b90508073ffffffffffffffffffffffffffffffffffffffff168473ffffffffffffffffffffffffffffffffffffffff161480610fce5750610fcd8185610cdd565b5b8061100c57508373ffffffffffffffffffffffffffffffffffffffff16610ff4846104a2565b73ffffffffffffffffffffffffffffffffffffffff16145b91505092915050565b8273ffffffffffffffffffffffffffffffffffffffff1661103582610838565b73ffffffffffffffffffffffffffffffffffffffff161461108b576040517f08c379a000000000000000000000000000000000000000000000000000000000815260040161108290612b9a565b60405180910390fd5b600073ffffffffffffffffffffffffffffffffffffffff168273ffffffffffffffffffffffffffffffffffffffff1614156110fb576040517f08c379a00000000000000000000000000000000000000000000000000000000081526004016110f290612bda565b60405180910390fd5b611106838383611c81565b611111600082610ec7565b6001600360008573ffffffffffffffffffffffffffffffffffffffff1673ffffffffffffffffffffffffffffffffffffffff168152602001908152602001600020600082825461116191906130d4565b925050819055506001600360008473ffffffffffffffffffffffffffffffffffffffff1673ffffffffffffffffffffffffffffffffffffffff16815260200190815260200160002060008282546111b89190612ddf565b92505081905550816002600083815260200190815260200160002060006101000a81548173ffffffffffffffffffffffffffffffffffffffff021916908373ffffffffffffffffffffffffffffffffffffffff160217905550808273ffffffffffffffffffffffffffffffffffffffff168473ffffffffffffffffffffffffffffffffffffffff167fddf252ad1be2c89b69c2b068fc378daa952ba7f163c4a11628f55a4df523b3ef60405160405180910390a4611277838383611cbf565b505050565b600081600001549050919050565b60606000602867ffffffffffffffff8111156112cf577f4e487b7100000000000000000000000000000000000000000000000000000000600052604160045260246000fd5b6040519080825280601f01601f1916602001820160405280156113015781602001600182028036833780820191505090505b50905060005b60148110156114b557600081601361131f91906130d4565b600861132b919061303f565b60026113379190612f21565b8573ffffffffffffffffffffffffffffffffffffffff166113589190612e6c565b60f81b9050600060108260f81c61136f9190612e9d565b60f81b905060008160f81c60106113869190613099565b8360f81c6113949190613108565b60f81b90506113a282611cc4565b858560026113b0919061303f565b815181106113e7577f4e487b7100000000000000000000000000000000000000000000000000000000600052603260045260246000fd5b60200101907effffffffffffffffffffffffffffffffffffffffffffffffffffffffffffff1916908160001a90535061141f81611cc4565b85600186600261142f919061303f565b6114399190612ddf565b81518110611470577f4e487b7100000000000000000000000000000000000000000000000000000000600052603260045260246000fd5b60200101907effffffffffffffffffffffffffffffffffffffffffffffffffffffffffffff1916908160001a90535050505080806114ad90613262565b915050611307565b5080915050919050565b606060008251905060008114156114e85760405180602001604052806000815250915050611678565b600060036002836114f99190612ddf565b6115039190612e6c565b600461150f919061303f565b905060006020826115209190612ddf565b67ffffffffffffffff81111561155f577f4e487b7100000000000000000000000000000000000000000000000000000000600052604160045260246000fd5b6040519080825280601f01601f1916602001820160405280156115915781602001600182028036833780820191505090505b5090506000604051806060016040528060408152602001613b72604091399050600181016020830160005b868110156116355760038101905062ffffff818a015116603f8160121c168401518060081b905060ff603f83600c1c1686015116810190508060081b905060ff603f8360061c1686015116810190508060081b905060ff603f831686015116810190508060e01b905080845260048401935050506115bc565b50600386066001811461164f576002811461165f5761166a565b613d3d60f01b600283035261166a565b603d60f81b60018303525b508484525050819450505050505b919050565b611697828260405180602001604052806000815250611d0a565b5050565b6116a482611c15565b6116e3576040517f08c379a00000000000000000000000000000000000000000000000000000000081526004016116da90612c3a565b60405180910390fd5b8060066000848152602001908152602001600020908051906020019061170a9291906120f9565b505050565b6117a983838360405160240161172793929190612b3c565b6040516020818303038152906040527fe3849f79000000000000000000000000000000000000000000000000000000007bffffffffffffffffffffffffffffffffffffffffffffffffffffffff19166020820180517bffffffffffffffffffffffffffffffffffffffffffffffffffffffff8381831617835250505050611bec565b505050565b6001816000016000828254019250508190555050565b8173ffffffffffffffffffffffffffffffffffffffff168373ffffffffffffffffffffffffffffffffffffffff161415611833576040517f08c379a000000000000000000000000000000000000000000000000000000000815260040161182a90612bfa565b60405180910390fd5b80600560008573ffffffffffffffffffffffffffffffffffffffff1673ffffffffffffffffffffffffffffffffffffffff16815260200190815260200160002060008473ffffffffffffffffffffffffffffffffffffffff1673ffffffffffffffffffffffffffffffffffffffff16815260200190815260200160002060006101000a81548160ff0219169083151502179055508173ffffffffffffffffffffffffffffffffffffffff168373ffffffffffffffffffffffffffffffffffffffff167f17307eab39ab6107e8899845ad3d59bd9653f200f220920489ca2b5937696c31836040516119249190612aff565b60405180910390a3505050565b61193c848484611015565b61194884848484611d65565b611987576040517f08c379a000000000000000000000000000000000000000000000000000000000815260040161197e90612b7a565b60405180910390fd5b50505050565b606060405180602001604052806000815250905090565b60606119af82610e74565b60006119b961198d565b905060008151116119d95760405180602001604052806000815250611a04565b806119e384611a0c565b6040516020016119f492919061295f565b6040516020818303038152906040525b915050919050565b60606000821415611a54576040518060400160405280600181526020017f30000000000000000000000000000000000000000000000000000000000000008152509050611bb4565b600082905060005b60008214611a86578080611a6f90613262565b915050600a82611a7f9190612e6c565b9150611a5c565b60008167ffffffffffffffff811115611ac8577f4e487b7100000000000000000000000000000000000000000000000000000000600052604160045260246000fd5b6040519080825280601f01601f191660200182016040528015611afa5781602001600182028036833780820191505090505b5090505b60008514611bad57600182611b1391906130d4565b9150600a85611b2291906132ab565b6030611b2e9190612ddf565b60f81b818381518110611b6a577f4e487b7100000000000000000000000000000000000000000000000000000000600052603260045260246000fd5b60200101907effffffffffffffffffffffffffffffffffffffffffffffffffffffffffffff1916908160001a905350600a85611ba69190612e6c565b9450611afe565b8093505050505b919050565b600081604051602001611bcc9190612948565b6040516020818303038152906040528051906020012060001c9050919050565b60008151905060006a636f6e736f6c652e6c6f679050602083016000808483855afa5050505050565b60008073ffffffffffffffffffffffffffffffffffffffff166002600084815260200190815260200160002060009054906101000a900473ffffffffffffffffffffffffffffffffffffffff1673ffffffffffffffffffffffffffffffffffffffff1614159050919050565b600073ffffffffffffffffffffffffffffffffffffffff168373ffffffffffffffffffffffffffffffffffffffff1614611cba57600080fd5b505050565b505050565b6000600a8260f81c60ff161015611cef5760308260f81c611ce59190612e35565b60f81b9050611d05565b60578260f81c611cff9190612e35565b60f81b90505b919050565b611d148383611efc565b611d216000848484611d65565b611d60576040517f08c379a0000000000000000000000000000000000000000000000000000000008152600401611d5790612b7a565b60405180910390fd5b505050565b6000611d868473ffffffffffffffffffffffffffffffffffffffff166120d6565b15611eef578373ffffffffffffffffffffffffffffffffffffffff1663150b7a02611daf610ebf565b8786866040518563ffffffff1660e01b8152600401611dd19493929190612ab3565b602060405180830381600087803b158015611deb57600080fd5b505af1925050508015611e1c57506040513d601f19601f82011682018060405250810190611e1991906124a5565b60015b611e9f573d8060008114611e4c576040519150601f19603f3d011682016040523d82523d6000602084013e611e51565b606091505b50600081511415611e97576040517f08c379a0000000000000000000000000000000000000000000000000000000008152600401611e8e90612b7a565b60405180910390fd5b805181602001fd5b63150b7a0260e01b7bffffffffffffffffffffffffffffffffffffffffffffffffffffffff1916817bffffffffffffffffffffffffffffffffffffffffffffffffffffffff191614915050611ef4565b600190505b949350505050565b600073ffffffffffffffffffffffffffffffffffffffff168273ffffffffffffffffffffffffffffffffffffffff161415611f6c576040517f08c379a0000000000000000000000000000000000000000000000000000000008152600401611f6390612c7a565b60405180910390fd5b611f7581611c15565b15611fb5576040517f08c379a0000000000000000000000000000000000000000000000000000000008152600401611fac90612bba565b60405180910390fd5b611fc160008383611c81565b6001600360008473ffffffffffffffffffffffffffffffffffffffff1673ffffffffffffffffffffffffffffffffffffffff16815260200190815260200160002060008282546120119190612ddf565b92505081905550816002600083815260200190815260200160002060006101000a81548173ffffffffffffffffffffffffffffffffffffffff021916908373ffffffffffffffffffffffffffffffffffffffff160217905550808273ffffffffffffffffffffffffffffffffffffffff16600073ffffffffffffffffffffffffffffffffffffffff167fddf252ad1be2c89b69c2b068fc378daa952ba7f163c4a11628f55a4df523b3ef60405160405180910390a46120d260008383611cbf565b5050565b6000808273ffffffffffffffffffffffffffffffffffffffff163b119050919050565b828054612105906131ff565b90600052602060002090601f016020900481019282612127576000855561216e565b82601f1061214057805160ff191683800117855561216e565b8280016001018555821561216e579182015b8281111561216d578251825591602001919060010190612152565b5b50905061217b919061217f565b5090565b5b80821115612198576000816000905550600101612180565b5090565b60006121af6121aa84612d3a565b612d15565b9050828152602081018484840111156121c757600080fd5b6121d28482856131bd565b509392505050565b60006121ed6121e884612d6b565b612d15565b90508281526020810184848401111561220557600080fd5b6122108482856131bd565b509392505050565b600081359050612227816139c2565b92915050565b60008135905061223c816139d9565b92915050565b600081359050612251816139f0565b92915050565b600081519050612266816139f0565b92915050565b600082601f83011261227d57600080fd5b813561228d84826020860161219c565b91505092915050565b600082601f8301126122a757600080fd5b81356122b78482602086016121da565b91505092915050565b6000813590506122cf81613a07565b92915050565b6000602082840312156122e757600080fd5b60006122f584828501612218565b91505092915050565b6000806040838503121561231157600080fd5b600061231f85828601612218565b925050602061233085828601612218565b9150509250929050565b60008060006060848603121561234f57600080fd5b600061235d86828701612218565b935050602061236e86828701612218565b925050604061237f868287016122c0565b9150509250925092565b6000806000806080858703121561239f57600080fd5b60006123ad87828801612218565b94505060206123be87828801612218565b93505060406123cf878288016122c0565b925050606085013567ffffffffffffffff8111156123ec57600080fd5b6123f88782880161226c565b91505092959194509250565b6000806040838503121561241757600080fd5b600061242585828601612218565b92505060206124368582860161222d565b9150509250929050565b6000806040838503121561245357600080fd5b600061246185828601612218565b9250506020612472858286016122c0565b9150509250929050565b60006020828403121561248e57600080fd5b600061249c84828501612242565b91505092915050565b6000602082840312156124b757600080fd5b60006124c584828501612257565b91505092915050565b6000806000606084860312156124e357600080fd5b600084013567ffffffffffffffff8111156124fd57600080fd5b61250986828701612296565b935050602084013567ffffffffffffffff81111561252657600080fd5b61253286828701612296565b925050604061254386828701612218565b9150509250925092565b60006020828403121561255f57600080fd5b600061256d848285016122c0565b91505092915050565b61257f8161313c565b82525050565b61258e8161314e565b82525050565b600061259f82612d9c565b6125a98185612db2565b93506125b98185602086016131cc565b6125c281613398565b840191505092915050565b60006125d882612da7565b6125e28185612dc3565b93506125f28185602086016131cc565b6125fb81613398565b840191505092915050565b600061261182612da7565b61261b8185612dd4565b935061262b8185602086016131cc565b80840191505092915050565b6000612644601083612dd4565b915061264f826133b6565b601082019050919050565b6000612667603283612dc3565b9150612672826133df565b604082019050919050565b600061268a602583612dc3565b91506126958261342e565b604082019050919050565b60006126ad601c83612dc3565b91506126b88261347d565b602082019050919050565b60006126d0602483612dc3565b91506126db826134a6565b604082019050919050565b60006126f3601983612dc3565b91506126fe826134f5565b602082019050919050565b6000612716604783612dd4565b91506127218261351e565b604782019050919050565b6000612739600d83612dd4565b915061274482613593565b600d82019050919050565b600061275c602983612dc3565b9150612767826135bc565b604082019050919050565b600061277f602e83612dc3565b915061278a8261360b565b604082019050919050565b60006127a2604f83612dd4565b91506127ad8261365a565b604f82019050919050565b60006127c5600283612dd4565b91506127d0826136cf565b600282019050919050565b60006127e8601083612dd4565b91506127f3826136f8565b601082019050919050565b600061280b603e83612dc3565b915061281682613721565b604082019050919050565b600061282e602083612dc3565b915061283982613770565b602082019050919050565b600061285160bc83612dd4565b915061285c82613799565b60bc82019050919050565b6000612874601883612dc3565b915061287f82613880565b602082019050919050565b6000612897602183612dc3565b91506128a2826138a9565b604082019050919050565b60006128ba601d83612dd4565b91506128c5826138f8565b601d82019050919050565b60006128dd600283612dd4565b91506128e882613921565b600282019050919050565b6000612900602e83612dc3565b915061290b8261394a565b604082019050919050565b6000612923600583612dd4565b915061292e82613999565b600582019050919050565b612942816131a6565b82525050565b60006129548284612606565b915081905092915050565b600061296b8285612606565b91506129778284612606565b91508190509392505050565b600061298f8285612606565b915061299b8284612606565b91506129a68261272c565b91508190509392505050565b60006129bd82612795565b91506129c98286612606565b91506129d482612709565b91506129e08285612606565b91506129eb82612844565b91506129f78284612606565b9150612a02826127b8565b9150819050949350505050565b6000612a1a826127db565b9150612a268285612606565b9150612a3182612637565b9150612a3d8284612606565b9150612a48826128d0565b91508190509392505050565b6000612a5f826128ad565b9150612a6b8284612606565b915081905092915050565b6000612a8182612916565b9150612a8d8284612606565b915081905092915050565b6000602082019050612aad6000830184612576565b92915050565b6000608082019050612ac86000830187612576565b612ad56020830186612576565b612ae26040830185612939565b8181036060830152612af48184612594565b905095945050505050565b6000602082019050612b146000830184612585565b92915050565b60006020820190508181036000830152612b3481846125cd565b905092915050565b60006060820190508181036000830152612b5681866125cd565b9050612b656020830185612939565b612b726040830184612576565b949350505050565b60006020820190508181036000830152612b938161265a565b9050919050565b60006020820190508181036000830152612bb38161267d565b9050919050565b60006020820190508181036000830152612bd3816126a0565b9050919050565b60006020820190508181036000830152612bf3816126c3565b9050919050565b60006020820190508181036000830152612c13816126e6565b9050919050565b60006020820190508181036000830152612c338161274f565b9050919050565b60006020820190508181036000830152612c5381612772565b9050919050565b60006020820190508181036000830152612c73816127fe565b9050919050565b60006020820190508181036000830152612c9381612821565b9050919050565b60006020820190508181036000830152612cb381612867565b9050919050565b60006020820190508181036000830152612cd38161288a565b9050919050565b60006020820190508181036000830152612cf3816128f3565b9050919050565b6000602082019050612d0f6000830184612939565b92915050565b6000612d1f612d30565b9050612d2b8282613231565b919050565b6000604051905090565b600067ffffffffffffffff821115612d5557612d54613369565b5b612d5e82613398565b9050602081019050919050565b600067ffffffffffffffff821115612d8657612d85613369565b5b612d8f82613398565b9050602081019050919050565b600081519050919050565b600081519050919050565b600082825260208201905092915050565b600082825260208201905092915050565b600081905092915050565b6000612dea826131a6565b9150612df5836131a6565b9250827fffffffffffffffffffffffffffffffffffffffffffffffffffffffffffffffff03821115612e2a57612e296132dc565b5b828201905092915050565b6000612e40826131b0565b9150612e4b836131b0565b92508260ff03821115612e6157612e606132dc565b5b828201905092915050565b6000612e77826131a6565b9150612e82836131a6565b925082612e9257612e9161330b565b5b828204905092915050565b6000612ea8826131b0565b9150612eb3836131b0565b925082612ec357612ec261330b565b5b828204905092915050565b6000808291508390505b6001851115612f1857808604811115612ef457612ef36132dc565b5b6001851615612f035780820291505b8081029050612f11856133a9565b9450612ed8565b94509492505050565b6000612f2c826131a6565b9150612f37836131a6565b9250612f647fffffffffffffffffffffffffffffffffffffffffffffffffffffffffffffffff8484612f6c565b905092915050565b600082612f7c5760019050613038565b81612f8a5760009050613038565b8160018114612fa05760028114612faa57612fd9565b6001915050613038565b60ff841115612fbc57612fbb6132dc565b5b8360020a915084821115612fd357612fd26132dc565b5b50613038565b5060208310610133831016604e8410600b841016171561300e5782820a905083811115613009576130086132dc565b5b613038565b61301b8484846001612ece565b92509050818404811115613032576130316132dc565b5b81810290505b9392505050565b600061304a826131a6565b9150613055836131a6565b9250817fffffffffffffffffffffffffffffffffffffffffffffffffffffffffffffffff048311821515161561308e5761308d6132dc565b5b828202905092915050565b60006130a4826131b0565b91506130af836131b0565b92508160ff04831182151516156130c9576130c86132dc565b5b828202905092915050565b60006130df826131a6565b91506130ea836131a6565b9250828210156130fd576130fc6132dc565b5b828203905092915050565b6000613113826131b0565b915061311e836131b0565b925082821015613131576131306132dc565b5b828203905092915050565b600061314782613186565b9050919050565b60008115159050919050565b60007fffffffff0000000000000000000000000000000000000000000000000000000082169050919050565b600073ffffffffffffffffffffffffffffffffffffffff82169050919050565b6000819050919050565b600060ff82169050919050565b82818337600083830152505050565b60005b838110156131ea5780820151818401526020810190506131cf565b838111156131f9576000848401525b50505050565b6000600282049050600182168061321757607f821691505b6020821081141561322b5761322a61333a565b5b50919050565b61323a82613398565b810181811067ffffffffffffffff8211171561325957613258613369565b5b80604052505050565b600061326d826131a6565b91507fffffffffffffffffffffffffffffffffffffffffffffffffffffffffffffffff8214156132a05761329f6132dc565b5b600182019050919050565b60006132b6826131a6565b91506132c1836131a6565b9250826132d1576132d061330b565b5b828206905092915050565b7f4e487b7100000000000000000000000000000000000000000000000000000000600052601160045260246000fd5b7f4e487b7100000000000000000000000000000000000000000000000000000000600052601260045260246000fd5b7f4e487b7100000000000000000000000000000000000000000000000000000000600052602260045260246000fd5b7f4e487b7100000000000000000000000000000000000000000000000000000000600052604160045260246000fd5b6000601f19601f8301169050919050565b60008160011c9050919050565b7f20636f6e747269627574656420746f2000000000000000000000000000000000600082015250565b7f4552433732313a207472616e7366657220746f206e6f6e20455243373231526560008201527f63656976657220696d706c656d656e7465720000000000000000000000000000602082015250565b7f4552433732313a207472616e736665722066726f6d20696e636f72726563742060008201527f6f776e6572000000000000000000000000000000000000000000000000000000602082015250565b7f4552433732313a20746f6b656e20616c7265616479206d696e74656400000000600082015250565b7f4552433732313a207472616e7366657220746f20746865207a65726f2061646460008201527f7265737300000000000000000000000000000000000000000000000000000000602082015250565b7f4552433732313a20617070726f766520746f2063616c6c657200000000000000600082015250565b7f7d2c7b22646973706c61795f74797065223a22626f6f73745f70657263656e7460008201527f616765222c2274726169745f74797065223a22636f6e74697262757465222c2260208201527f76616c7565223a00000000000000000000000000000000000000000000000000604082015250565b7f3c2f746578743e3c2f7376673e00000000000000000000000000000000000000600082015250565b7f4552433732313a2061646472657373207a65726f206973206e6f74206120766160008201527f6c6964206f776e65720000000000000000000000000000000000000000000000602082015250565b7f45524337323155524953746f726167653a2055524920736574206f66206e6f6e60008201527f6578697374656e7420746f6b656e000000000000000000000000000000000000602082015250565b7f7b2261747472696275746573223a5b7b22646973706c61795f74797065223a2260008201527f626f6f73745f70657263656e74616765222c2274726169745f74797065223a2260208201527f6275696c64222c2276616c7565223a0000000000000000000000000000000000604082015250565b7f227d000000000000000000000000000000000000000000000000000000000000600082015250565b7f496e20746869732070726f6a6563742000000000000000000000000000000000600082015250565b7f4552433732313a20617070726f76652063616c6c6572206973206e6f7420746f60008201527f6b656e206f776e6572206e6f7220617070726f76656420666f7220616c6c0000602082015250565b7f4552433732313a206d696e7420746f20746865207a65726f2061646472657373600082015250565b7f7d2c207b2274726169745f74797065223a2250726f6a656374222c2276616c7560008201527f65223a22706f6c79676f6e2d6861636b6174686f6e227d5d2c20226e616d652260208201527f3a202256697a75616c697a65436f6d6d69744e4654222c20226465736372697060408201527f74696f6e223a202276697a75616c697a6520796f757220636f6e74726962757460608201527f696f6e20696e206120776562332070726f6a656374222c2022696d616765223a60808201527f2022646174613a696d6167652f7376672b786d6c3b6261736536342c0000000060a082015250565b7f4552433732313a20696e76616c696420746f6b656e2049440000000000000000600082015250565b7f4552433732313a20617070726f76616c20746f2063757272656e74206f776e6560008201527f7200000000000000000000000000000000000000000000000000000000000000602082015250565b7f646174613a6170706c69636174696f6e2f6a736f6e3b6261736536342c000000600082015250565b7f2520000000000000000000000000000000000000000000000000000000000000600082015250565b7f4552433732313a2063616c6c6572206973206e6f7420746f6b656e206f776e6560008201527f72206e6f7220617070726f766564000000000000000000000000000000000000602082015250565b7f494d414745000000000000000000000000000000000000000000000000000000600082015250565b6139cb8161313c565b81146139d657600080fd5b50565b6139e28161314e565b81146139ed57600080fd5b50565b6139f98161315a565b8114613a0457600080fd5b50565b613a10816131a6565b8114613a1b57600080fd5b5056fe3c73766720786d6c6e733d27687474703a2f2f7777772e77332e6f72672f323030302f73766727207072657365727665417370656374526174696f3d27784d696e594d696e206d656574272076696577426f783d273020302033353020333530273e3c7374796c653e2e62617365207b2066696c6c3a2077686974653b20666f6e742d66616d696c793a2073657269663b20666f6e742d73697a653a203870783b207d3c2f7374796c653e3c726563742077696474683d273130302527206865696768743d2731303025272066696c6c3d27626c61636b27202f3e3c7465787420783d273530252720793d273530252720636c6173733d27626173652720646f6d696e616e742d626173656c696e653d276d6964646c652720746578742d616e63686f723d276d6964646c65273e416e204e465420772f20494420257320686173206265656e206d696e74656420746f2025734142434445464748494a4b4c4d4e4f505152535455565758595a6162636465666768696a6b6c6d6e6f707172737475767778797a303132333435363738392b2fa26469706673582212207efd3a9f3ced07c50e6d0847d24fa45ff5963abddc1eedd9409c883c8c5fa71964736f6c6343000804003368747470733a2f2f69636f6f6f6e2d6d6f6e6f2e636f6d2f692f69636f6e5f31343438322f69636f6e5f3134343832305f3235362e706e6768747470733a2f2f667265652d69636f6e732e6e65742f77702d636f6e74656e742f75706c6f6164732f323032312f30332f6c65697375726530322e706e6768747470733a2f2f312e62702e626c6f6773706f742e636f6d2f2d6e345a79357a6e7a7a6b512f5539795f756c39345238492f41414141414141416a68342f73447a6d55374730554d412f733830302f6b697070752e706e67",
  "linkReferences": {},
  "deployedLinkReferences": {}
}