{
  "_format": "hh-sol-artifact-1",
  "contractName": "CreateNFT",
  "sourceName": "contracts/createNFT.sol",
  "abi": [
    {
      "inputs": [],
      "stateMutability": "nonpayable",
      "type": "constructor"
    },
    {
      "anonymous": false,
      "inputs": [
        {
          "indexed": true,
          "internalType": "address",
          "name": "owner",
          "type": "address"
        },
        {
          "indexed": true,
          "internalType": "address",
          "name": "approved",
          "type": "address"
        },
        {
          "indexed": true,
          "internalType": "uint256",
          "name": "tokenId",
          "type": "uint256"
        }
      ],
      "name": "Approval",
      "type": "event"
    },
    {
      "anonymous": false,
      "inputs": [
        {
          "indexed": true,
          "internalType": "address",
          "name": "owner",
          "type": "address"
        },
        {
          "indexed": true,
          "internalType": "address",
          "name": "operator",
          "type": "address"
        },
        {
          "indexed": false,
          "internalType": "bool",
          "name": "approved",
          "type": "bool"
        }
      ],
      "name": "ApprovalForAll",
      "type": "event"
    },
    {
      "anonymous": false,
      "inputs": [
        {
          "indexed": true,
          "internalType": "address",
          "name": "from",
          "type": "address"
        },
        {
          "indexed": true,
          "internalType": "address",
          "name": "to",
          "type": "address"
        },
        {
          "indexed": true,
          "internalType": "uint256",
          "name": "tokenId",
          "type": "uint256"
        }
      ],
      "name": "Transfer",
      "type": "event"
    },
    {
      "inputs": [
        {
          "internalType": "address",
          "name": "to",
          "type": "address"
        },
        {
          "internalType": "uint256",
          "name": "tokenId",
          "type": "uint256"
        }
      ],
      "name": "approve",
      "outputs": [],
      "stateMutability": "nonpayable",
      "type": "function"
    },
    {
      "inputs": [
        {
          "internalType": "address",
          "name": "owner",
          "type": "address"
        }
      ],
      "name": "balanceOf",
      "outputs": [
        {
          "internalType": "uint256",
          "name": "",
          "type": "uint256"
        }
      ],
      "stateMutability": "view",
      "type": "function"
    },
    {
      "inputs": [
        {
          "internalType": "uint256",
          "name": "tokenId",
          "type": "uint256"
        }
      ],
      "name": "getApproved",
      "outputs": [
        {
          "internalType": "address",
          "name": "",
          "type": "address"
        }
      ],
      "stateMutability": "view",
      "type": "function"
    },
    {
      "inputs": [
        {
          "internalType": "address",
          "name": "owner",
          "type": "address"
        },
        {
          "internalType": "address",
          "name": "operator",
          "type": "address"
        }
      ],
      "name": "isApprovedForAll",
      "outputs": [
        {
          "internalType": "bool",
          "name": "",
          "type": "bool"
        }
      ],
      "stateMutability": "view",
      "type": "function"
    },
    {
      "inputs": [],
      "name": "name",
      "outputs": [
        {
          "internalType": "string",
          "name": "",
          "type": "string"
        }
      ],
      "stateMutability": "view",
      "type": "function"
    },
    {
      "inputs": [
        {
          "internalType": "uint256",
          "name": "tokenId",
          "type": "uint256"
        }
      ],
      "name": "ownerOf",
      "outputs": [
        {
          "internalType": "address",
          "name": "",
          "type": "address"
        }
      ],
      "stateMutability": "view",
      "type": "function"
    },
    {
      "inputs": [
        {
          "internalType": "uint256",
          "name": "tokenId",
          "type": "uint256"
        }
      ],
      "name": "pickRandomImage",
      "outputs": [
        {
          "internalType": "string",
          "name": "",
          "type": "string"
        }
      ],
      "stateMutability": "view",
      "type": "function"
    },
    {
      "inputs": [
        {
          "internalType": "address",
          "name": "from",
          "type": "address"
        },
        {
          "internalType": "address",
          "name": "to",
          "type": "address"
        },
        {
          "internalType": "uint256",
          "name": "tokenId",
          "type": "uint256"
        }
      ],
      "name": "safeTransferFrom",
      "outputs": [],
      "stateMutability": "nonpayable",
      "type": "function"
    },
    {
      "inputs": [
        {
          "internalType": "address",
          "name": "from",
          "type": "address"
        },
        {
          "internalType": "address",
          "name": "to",
          "type": "address"
        },
        {
          "internalType": "uint256",
          "name": "tokenId",
          "type": "uint256"
        },
        {
          "internalType": "bytes",
          "name": "data",
          "type": "bytes"
        }
      ],
      "name": "safeTransferFrom",
      "outputs": [],
      "stateMutability": "nonpayable",
      "type": "function"
    },
    {
      "inputs": [
        {
          "internalType": "address",
          "name": "operator",
          "type": "address"
        },
        {
          "internalType": "bool",
          "name": "approved",
          "type": "bool"
        }
      ],
      "name": "setApprovalForAll",
      "outputs": [],
      "stateMutability": "nonpayable",
      "type": "function"
    },
    {
      "inputs": [
        {
          "internalType": "bytes4",
          "name": "interfaceId",
          "type": "bytes4"
        }
      ],
      "name": "supportsInterface",
      "outputs": [
        {
          "internalType": "bool",
          "name": "",
          "type": "bool"
        }
      ],
      "stateMutability": "view",
      "type": "function"
    },
    {
      "inputs": [],
      "name": "symbol",
      "outputs": [
        {
          "internalType": "string",
          "name": "",
          "type": "string"
        }
      ],
      "stateMutability": "view",
      "type": "function"
    },
    {
      "inputs": [
        {
          "internalType": "uint256",
          "name": "tokenId",
          "type": "uint256"
        }
      ],
      "name": "tokenURI",
      "outputs": [
        {
          "internalType": "string",
          "name": "",
          "type": "string"
        }
      ],
      "stateMutability": "view",
      "type": "function"
    },
    {
      "inputs": [
        {
          "internalType": "address",
          "name": "from",
          "type": "address"
        },
        {
          "internalType": "address",
          "name": "to",
          "type": "address"
        },
        {
          "internalType": "uint256",
          "name": "tokenId",
          "type": "uint256"
        }
      ],
      "name": "transferFrom",
      "outputs": [],
      "stateMutability": "nonpayable",
      "type": "function"
    },
    {
      "inputs": [
        {
          "internalType": "string",
          "name": "_build",
          "type": "string"
        },
        {
          "internalType": "string",
          "name": "_contribute",
          "type": "string"
        },
        {
          "internalType": "address",
          "name": "_owner",
          "type": "address"
        }
      ],
      "name": "writeNFT",
      "outputs": [],
      "stateMutability": "nonpayable",
      "type": "function"
    }
  ],
  "bytecode": "0x6080604052604051806060016040528060405180606001604052806038815260200162003c6360389139815260200160405180608001604052806059815260200162003cda6059913981526020016040518060600160405280603f815260200162003c9b603f913981525060089060036200007c92919062000248565b503480156200008a57600080fd5b506040518060400160405280600981526020017f436f6d6d69744e465400000000000000000000000000000000000000000000008152506040518060400160405280600681526020017f434f4d4d4954000000000000000000000000000000000000000000000000000081525081600090805190602001906200010f929190620002af565b50806001908051906020019062000128929190620002af565b505050620001766040518060400160405280601c81526020017f56697a75616c697a6520796f757220636f6e747269627574696f6e21000000008152506200017c60201b62000d691760201c565b620004fa565b6200021c816040516024016200019391906200040e565b6040516020818303038152906040527f41304fac000000000000000000000000000000000000000000000000000000007bffffffffffffffffffffffffffffffffffffffffffffffffffffffff19166020820180517bffffffffffffffffffffffffffffffffffffffffffffffffffffffff83818316178352505050506200021f60201b60201c565b50565b60008151905060006a636f6e736f6c652e6c6f679050602083016000808483855afa5050505050565b8280548282559060005260206000209081019282156200029c579160200282015b828111156200029b5782518290805190602001906200028a929190620002af565b509160200191906001019062000269565b5b509050620002ab919062000340565b5090565b828054620002bd9062000484565b90600052602060002090601f016020900481019282620002e157600085556200032d565b82601f10620002fc57805160ff19168380011785556200032d565b828001600101855582156200032d579182015b828111156200032c5782518255916020019190600101906200030f565b5b5090506200033c919062000368565b5090565b5b808211156200036457600081816200035a919062000387565b5060010162000341565b5090565b5b808211156200038357600081600090555060010162000369565b5090565b508054620003959062000484565b6000825580601f10620003a95750620003ca565b601f016020900490600052602060002090810190620003c9919062000368565b5b50565b6000620003da8262000432565b620003e681856200043d565b9350620003f88185602086016200044e565b6200040381620004e9565b840191505092915050565b600060208201905081810360008301526200042a8184620003cd565b905092915050565b600081519050919050565b600082825260208201905092915050565b60005b838110156200046e57808201518184015260208101905062000451565b838111156200047e576000848401525b50505050565b600060028204905060018216806200049d57607f821691505b60208210811415620004b457620004b3620004ba565b5b50919050565b7f4e487b7100000000000000000000000000000000000000000000000000000000600052602260045260246000fd5b6000601f19601f8301169050919050565b613759806200050a6000396000f3fe608060405234801561001057600080fd5b50600436106100f55760003560e01c80636352211e11610097578063b88d4fde11610066578063b88d4fde14610282578063c87b56dd1461029e578063d13508fc146102ce578063e985e9c5146102fe576100f5565b80636352211e146101e857806370a082311461021857806395d89b4114610248578063a22cb46514610266576100f5565b8063095ea7b3116100d3578063095ea7b31461017857806323b872dd1461019457806342842e0e146101b05780634a6ec05b146101cc576100f5565b806301ffc9a7146100fa57806306fdde031461012a578063081812fc14610148575b600080fd5b610114600480360381019061010f91906121f9565b61032e565b60405161012191906128aa565b60405180910390f35b610132610410565b60405161013f91906128c5565b60405180910390f35b610162600480360381019061015d91906122ca565b6104a2565b60405161016f9190612843565b60405180910390f35b610192600480360381019061018d91906121bd565b6104e8565b005b6101ae60048036038101906101a991906120b7565b610600565b005b6101ca60048036038101906101c591906120b7565b610660565b005b6101e660048036038101906101e1919061224b565b610680565b005b61020260048036038101906101fd91906122ca565b610830565b60405161020f9190612843565b60405180910390f35b610232600480360381019061022d9190612052565b6108e2565b60405161023f9190612aa5565b60405180910390f35b61025061099a565b60405161025d91906128c5565b60405180910390f35b610280600480360381019061027b9190612181565b610a2c565b005b61029c60048036038101906102979190612106565b610a42565b005b6102b860048036038101906102b391906122ca565b610aa4565b6040516102c591906128c5565b60405180910390f35b6102e860048036038101906102e391906122ca565b610bb7565b6040516102f591906128c5565b60405180910390f35b6103186004803603810190610313919061207b565b610cd5565b60405161032591906128aa565b60405180910390f35b60007f80ac58cd000000000000000000000000000000000000000000000000000000007bffffffffffffffffffffffffffffffffffffffffffffffffffffffff1916827bffffffffffffffffffffffffffffffffffffffffffffffffffffffff191614806103f957507f5b5e139f000000000000000000000000000000000000000000000000000000007bffffffffffffffffffffffffffffffffffffffffffffffffffffffff1916827bffffffffffffffffffffffffffffffffffffffffffffffffffffffff1916145b80610409575061040882610e02565b5b9050919050565b60606000805461041f90612d55565b80601f016020809104026020016040519081016040528092919081815260200182805461044b90612d55565b80156104985780601f1061046d57610100808354040283529160200191610498565b820191906000526020600020905b81548152906001019060200180831161047b57829003601f168201915b5050505050905090565b60006104ad82610e6c565b6004600083815260200190815260200160002060009054906101000a900473ffffffffffffffffffffffffffffffffffffffff169050919050565b60006104f382610830565b90508073ffffffffffffffffffffffffffffffffffffffff168373ffffffffffffffffffffffffffffffffffffffff161415610564576040517f08c379a000000000000000000000000000000000000000000000000000000000815260040161055b90612a65565b60405180910390fd5b8073ffffffffffffffffffffffffffffffffffffffff16610583610eb7565b73ffffffffffffffffffffffffffffffffffffffff1614806105b257506105b1816105ac610eb7565b610cd5565b5b6105f1576040517f08c379a00000000000000000000000000000000000000000000000000000000081526004016105e890612a05565b60405180910390fd5b6105fb8383610ebf565b505050565b61061161060b610eb7565b82610f78565b610650576040517f08c379a000000000000000000000000000000000000000000000000000000000815260040161064790612a85565b60405180910390fd5b61065b83838361100d565b505050565b61067b83838360405180602001604052806000815250610a42565b505050565b600061068c6007611274565b905061069784610d69565b600084846040516020016106ac9291906127af565b6040516020818303038152906040529050600060405180610160016040528061012e815260200161359161012e91399050600081836040516020016106f2929190612723565b60405160208183030381529060405290506000610739888861071385611282565b60405160200161072593929190612752565b604051602081830303815290604052611282565b905060008160405160200161074e91906127ff565b604051602081830303815290604052905061079d6040518060400160405280601581526020017f0a2d2d2d2d2d20546f6b656e20555249202d2d2d2d0000000000000000000000815250610d69565b6107a683610d69565b6107e46040518060400160405280601581526020017f2d2d2d2d2d2d2d2d2d2d2d2d2d2d2d2d2d2d2d2d0a0000000000000000000000815250610d69565b6107ee8787611440565b6107f8868261145e565b61081b6040518060600160405280602581526020016136bf6025913987336114d2565b6108256007611571565b505050505050505050565b6000806002600084815260200190815260200160002060009054906101000a900473ffffffffffffffffffffffffffffffffffffffff169050600073ffffffffffffffffffffffffffffffffffffffff168173ffffffffffffffffffffffffffffffffffffffff1614156108d9576040517f08c379a00000000000000000000000000000000000000000000000000000000081526004016108d090612a45565b60405180910390fd5b80915050919050565b60008073ffffffffffffffffffffffffffffffffffffffff168273ffffffffffffffffffffffffffffffffffffffff161415610953576040517f08c379a000000000000000000000000000000000000000000000000000000000815260040161094a906129c5565b60405180910390fd5b600360008373ffffffffffffffffffffffffffffffffffffffff1673ffffffffffffffffffffffffffffffffffffffff168152602001908152602001600020549050919050565b6060600180546109a990612d55565b80601f01602080910402602001604051908101604052809291908181526020018280546109d590612d55565b8015610a225780601f106109f757610100808354040283529160200191610a22565b820191906000526020600020905b815481529060010190602001808311610a0557829003601f168201915b5050505050905090565b610a3e610a37610eb7565b8383611587565b5050565b610a53610a4d610eb7565b83610f78565b610a92576040517f08c379a0000000000000000000000000000000000000000000000000000000008152600401610a8990612a85565b60405180910390fd5b610a9e848484846116f4565b50505050565b6060610aaf82610e6c565b6000600660008481526020019081526020016000208054610acf90612d55565b80601f0160208091040260200160405190810160405280929190818152602001828054610afb90612d55565b8015610b485780601f10610b1d57610100808354040283529160200191610b48565b820191906000526020600020905b815481529060010190602001808311610b2b57829003601f168201915b505050505090506000610b59611750565b9050600081511415610b6f578192505050610bb2565b600082511115610ba4578082604051602001610b8c9291906126ff565b60405160208183030381529060405292505050610bb2565b610bad84611767565b925050505b919050565b60606000610beb610bc7846117cf565b604051602001610bd79190612821565b60405160208183030381529060405261197c565b905060088054905081610bfe9190612e01565b905060088181548110610c3a577f4e487b7100000000000000000000000000000000000000000000000000000000600052603260045260246000fd5b906000526020600020018054610c4f90612d55565b80601f0160208091040260200160405190810160405280929190818152602001828054610c7b90612d55565b8015610cc85780601f10610c9d57610100808354040283529160200191610cc8565b820191906000526020600020905b815481529060010190602001808311610cab57829003601f168201915b5050505050915050919050565b6000600560008473ffffffffffffffffffffffffffffffffffffffff1673ffffffffffffffffffffffffffffffffffffffff16815260200190815260200160002060008373ffffffffffffffffffffffffffffffffffffffff1673ffffffffffffffffffffffffffffffffffffffff16815260200190815260200160002060009054906101000a900460ff16905092915050565b610dff81604051602401610d7d91906128c5565b6040516020818303038152906040527f41304fac000000000000000000000000000000000000000000000000000000007bffffffffffffffffffffffffffffffffffffffffffffffffffffffff19166020820180517bffffffffffffffffffffffffffffffffffffffffffffffffffffffff83818316178352505050506119af565b50565b60007f01ffc9a7000000000000000000000000000000000000000000000000000000007bffffffffffffffffffffffffffffffffffffffffffffffffffffffff1916827bffffffffffffffffffffffffffffffffffffffffffffffffffffffff1916149050919050565b610e75816119d8565b610eb4576040517f08c379a0000000000000000000000000000000000000000000000000000000008152600401610eab90612a45565b60405180910390fd5b50565b600033905090565b816004600083815260200190815260200160002060006101000a81548173ffffffffffffffffffffffffffffffffffffffff021916908373ffffffffffffffffffffffffffffffffffffffff160217905550808273ffffffffffffffffffffffffffffffffffffffff16610f3283610830565b73ffffffffffffffffffffffffffffffffffffffff167f8c5be1e5ebec7d5bd14f71427d1e84f3dd0314c0f7b2291e5b200ac8c7c3b92560405160405180910390a45050565b600080610f8483610830565b90508073ffffffffffffffffffffffffffffffffffffffff168473ffffffffffffffffffffffffffffffffffffffff161480610fc65750610fc58185610cd5565b5b8061100457508373ffffffffffffffffffffffffffffffffffffffff16610fec846104a2565b73ffffffffffffffffffffffffffffffffffffffff16145b91505092915050565b8273ffffffffffffffffffffffffffffffffffffffff1661102d82610830565b73ffffffffffffffffffffffffffffffffffffffff1614611083576040517f08c379a000000000000000000000000000000000000000000000000000000000815260040161107a90612945565b60405180910390fd5b600073ffffffffffffffffffffffffffffffffffffffff168273ffffffffffffffffffffffffffffffffffffffff1614156110f3576040517f08c379a00000000000000000000000000000000000000000000000000000000081526004016110ea90612985565b60405180910390fd5b6110fe838383611a44565b611109600082610ebf565b6001600360008573ffffffffffffffffffffffffffffffffffffffff1673ffffffffffffffffffffffffffffffffffffffff16815260200190815260200160002060008282546111599190612c6b565b925050819055506001600360008473ffffffffffffffffffffffffffffffffffffffff1673ffffffffffffffffffffffffffffffffffffffff16815260200190815260200160002060008282546111b09190612b8a565b92505081905550816002600083815260200190815260200160002060006101000a81548173ffffffffffffffffffffffffffffffffffffffff021916908373ffffffffffffffffffffffffffffffffffffffff160217905550808273ffffffffffffffffffffffffffffffffffffffff168473ffffffffffffffffffffffffffffffffffffffff167fddf252ad1be2c89b69c2b068fc378daa952ba7f163c4a11628f55a4df523b3ef60405160405180910390a461126f838383611a82565b505050565b600081600001549050919050565b606060008251905060008114156112ab576040518060200160405280600081525091505061143b565b600060036002836112bc9190612b8a565b6112c69190612be0565b60046112d29190612c11565b905060006020826112e39190612b8a565b67ffffffffffffffff811115611322577f4e487b7100000000000000000000000000000000000000000000000000000000600052604160045260246000fd5b6040519080825280601f01601f1916602001820160405280156113545781602001600182028036833780820191505090505b50905060006040518060600160405280604081526020016136e4604091399050600181016020830160005b868110156113f85760038101905062ffffff818a015116603f8160121c168401518060081b905060ff603f83600c1c1686015116810190508060081b905060ff603f8360061c1686015116810190508060081b905060ff603f831686015116810190508060e01b9050808452600484019350505061137f565b50600386066001811461141257600281146114225761142d565b613d3d60f01b600283035261142d565b603d60f81b60018303525b508484525050819450505050505b919050565b61145a828260405180602001604052806000815250611a87565b5050565b611467826119d8565b6114a6576040517f08c379a000000000000000000000000000000000000000000000000000000000815260040161149d906129e5565b60405180910390fd5b806006600084815260200190815260200160002090805190602001906114cd929190611e76565b505050565b61156c8383836040516024016114ea939291906128e7565b6040516020818303038152906040527fe3849f79000000000000000000000000000000000000000000000000000000007bffffffffffffffffffffffffffffffffffffffffffffffffffffffff19166020820180517bffffffffffffffffffffffffffffffffffffffffffffffffffffffff83818316178352505050506119af565b505050565b6001816000016000828254019250508190555050565b8173ffffffffffffffffffffffffffffffffffffffff168373ffffffffffffffffffffffffffffffffffffffff1614156115f6576040517f08c379a00000000000000000000000000000000000000000000000000000000081526004016115ed906129a5565b60405180910390fd5b80600560008573ffffffffffffffffffffffffffffffffffffffff1673ffffffffffffffffffffffffffffffffffffffff16815260200190815260200160002060008473ffffffffffffffffffffffffffffffffffffffff1673ffffffffffffffffffffffffffffffffffffffff16815260200190815260200160002060006101000a81548160ff0219169083151502179055508173ffffffffffffffffffffffffffffffffffffffff168373ffffffffffffffffffffffffffffffffffffffff167f17307eab39ab6107e8899845ad3d59bd9653f200f220920489ca2b5937696c31836040516116e791906128aa565b60405180910390a3505050565b6116ff84848461100d565b61170b84848484611ae2565b61174a576040517f08c379a000000000000000000000000000000000000000000000000000000000815260040161174190612925565b60405180910390fd5b50505050565b606060405180602001604052806000815250905090565b606061177282610e6c565b600061177c611750565b9050600081511161179c57604051806020016040528060008152506117c7565b806117a6846117cf565b6040516020016117b79291906126ff565b6040516020818303038152906040525b915050919050565b60606000821415611817576040518060400160405280600181526020017f30000000000000000000000000000000000000000000000000000000000000008152509050611977565b600082905060005b6000821461184957808061183290612db8565b915050600a826118429190612be0565b915061181f565b60008167ffffffffffffffff81111561188b577f4e487b7100000000000000000000000000000000000000000000000000000000600052604160045260246000fd5b6040519080825280601f01601f1916602001820160405280156118bd5781602001600182028036833780820191505090505b5090505b60008514611970576001826118d69190612c6b565b9150600a856118e59190612e01565b60306118f19190612b8a565b60f81b81838151811061192d577f4e487b7100000000000000000000000000000000000000000000000000000000600052603260045260246000fd5b60200101907effffffffffffffffffffffffffffffffffffffffffffffffffffffffffffff1916908160001a905350600a856119699190612be0565b94506118c1565b8093505050505b919050565b60008160405160200161198f91906126e8565b6040516020818303038152906040528051906020012060001c9050919050565b60008151905060006a636f6e736f6c652e6c6f679050602083016000808483855afa5050505050565b60008073ffffffffffffffffffffffffffffffffffffffff166002600084815260200190815260200160002060009054906101000a900473ffffffffffffffffffffffffffffffffffffffff1673ffffffffffffffffffffffffffffffffffffffff1614159050919050565b600073ffffffffffffffffffffffffffffffffffffffff168373ffffffffffffffffffffffffffffffffffffffff1614611a7d57600080fd5b505050565b505050565b611a918383611c79565b611a9e6000848484611ae2565b611add576040517f08c379a0000000000000000000000000000000000000000000000000000000008152600401611ad490612925565b60405180910390fd5b505050565b6000611b038473ffffffffffffffffffffffffffffffffffffffff16611e53565b15611c6c578373ffffffffffffffffffffffffffffffffffffffff1663150b7a02611b2c610eb7565b8786866040518563ffffffff1660e01b8152600401611b4e949392919061285e565b602060405180830381600087803b158015611b6857600080fd5b505af1925050508015611b9957506040513d601f19601f82011682018060405250810190611b969190612222565b60015b611c1c573d8060008114611bc9576040519150601f19603f3d011682016040523d82523d6000602084013e611bce565b606091505b50600081511415611c14576040517f08c379a0000000000000000000000000000000000000000000000000000000008152600401611c0b90612925565b60405180910390fd5b805181602001fd5b63150b7a0260e01b7bffffffffffffffffffffffffffffffffffffffffffffffffffffffff1916817bffffffffffffffffffffffffffffffffffffffffffffffffffffffff191614915050611c71565b600190505b949350505050565b600073ffffffffffffffffffffffffffffffffffffffff168273ffffffffffffffffffffffffffffffffffffffff161415611ce9576040517f08c379a0000000000000000000000000000000000000000000000000000000008152600401611ce090612a25565b60405180910390fd5b611cf2816119d8565b15611d32576040517f08c379a0000000000000000000000000000000000000000000000000000000008152600401611d2990612965565b60405180910390fd5b611d3e60008383611a44565b6001600360008473ffffffffffffffffffffffffffffffffffffffff1673ffffffffffffffffffffffffffffffffffffffff1681526020019081526020016000206000828254611d8e9190612b8a565b92505081905550816002600083815260200190815260200160002060006101000a81548173ffffffffffffffffffffffffffffffffffffffff021916908373ffffffffffffffffffffffffffffffffffffffff160217905550808273ffffffffffffffffffffffffffffffffffffffff16600073ffffffffffffffffffffffffffffffffffffffff167fddf252ad1be2c89b69c2b068fc378daa952ba7f163c4a11628f55a4df523b3ef60405160405180910390a4611e4f60008383611a82565b5050565b6000808273ffffffffffffffffffffffffffffffffffffffff163b119050919050565b828054611e8290612d55565b90600052602060002090601f016020900481019282611ea45760008555611eeb565b82601f10611ebd57805160ff1916838001178555611eeb565b82800160010185558215611eeb579182015b82811115611eea578251825591602001919060010190611ecf565b5b509050611ef89190611efc565b5090565b5b80821115611f15576000816000905550600101611efd565b5090565b6000611f2c611f2784612ae5565b612ac0565b905082815260208101848484011115611f4457600080fd5b611f4f848285612d13565b509392505050565b6000611f6a611f6584612b16565b612ac0565b905082815260208101848484011115611f8257600080fd5b611f8d848285612d13565b509392505050565b600081359050611fa481613534565b92915050565b600081359050611fb98161354b565b92915050565b600081359050611fce81613562565b92915050565b600081519050611fe381613562565b92915050565b600082601f830112611ffa57600080fd5b813561200a848260208601611f19565b91505092915050565b600082601f83011261202457600080fd5b8135612034848260208601611f57565b91505092915050565b60008135905061204c81613579565b92915050565b60006020828403121561206457600080fd5b600061207284828501611f95565b91505092915050565b6000806040838503121561208e57600080fd5b600061209c85828601611f95565b92505060206120ad85828601611f95565b9150509250929050565b6000806000606084860312156120cc57600080fd5b60006120da86828701611f95565b93505060206120eb86828701611f95565b92505060406120fc8682870161203d565b9150509250925092565b6000806000806080858703121561211c57600080fd5b600061212a87828801611f95565b945050602061213b87828801611f95565b935050604061214c8782880161203d565b925050606085013567ffffffffffffffff81111561216957600080fd5b61217587828801611fe9565b91505092959194509250565b6000806040838503121561219457600080fd5b60006121a285828601611f95565b92505060206121b385828601611faa565b9150509250929050565b600080604083850312156121d057600080fd5b60006121de85828601611f95565b92505060206121ef8582860161203d565b9150509250929050565b60006020828403121561220b57600080fd5b600061221984828501611fbf565b91505092915050565b60006020828403121561223457600080fd5b600061224284828501611fd4565b91505092915050565b60008060006060848603121561226057600080fd5b600084013567ffffffffffffffff81111561227a57600080fd5b61228686828701612013565b935050602084013567ffffffffffffffff8111156122a357600080fd5b6122af86828701612013565b92505060406122c086828701611f95565b9150509250925092565b6000602082840312156122dc57600080fd5b60006122ea8482850161203d565b91505092915050565b6122fc81612c9f565b82525050565b61230b81612cb1565b82525050565b600061231c82612b47565b6123268185612b5d565b9350612336818560208601612d22565b61233f81612eee565b840191505092915050565b600061235582612b52565b61235f8185612b6e565b935061236f818560208601612d22565b61237881612eee565b840191505092915050565b600061238e82612b52565b6123988185612b7f565b93506123a8818560208601612d22565b80840191505092915050565b60006123c1603283612b6e565b91506123cc82612eff565b604082019050919050565b60006123e4600983612b7f565b91506123ef82612f4e565b600982019050919050565b6000612407602583612b6e565b915061241282612f77565b604082019050919050565b600061242a601c83612b6e565b915061243582612fc6565b602082019050919050565b600061244d600983612b7f565b915061245882612fef565b600982019050919050565b6000612470602483612b6e565b915061247b82613018565b604082019050919050565b6000612493601983612b6e565b915061249e82613067565b602082019050919050565b60006124b6604783612b7f565b91506124c182613090565b604782019050919050565b60006124d9601283612b7f565b91506124e482613105565b601282019050919050565b60006124fc600d83612b7f565b91506125078261312e565b600d82019050919050565b600061251f602983612b6e565b915061252a82613157565b604082019050919050565b6000612542602e83612b6e565b915061254d826131a6565b604082019050919050565b6000612565604f83612b7f565b9150612570826131f5565b604f82019050919050565b6000612588601483612b7f565b91506125938261326a565b601482019050919050565b60006125ab600283612b7f565b91506125b682613293565b600282019050919050565b60006125ce603e83612b6e565b91506125d9826132bc565b604082019050919050565b60006125f1602083612b6e565b91506125fc8261330b565b602082019050919050565b600061261460bc83612b7f565b915061261f82613334565b60bc82019050919050565b6000612637601883612b6e565b91506126428261341b565b602082019050919050565b600061265a602183612b6e565b915061266582613444565b604082019050919050565b600061267d601d83612b7f565b915061268882613493565b601d82019050919050565b60006126a0602e83612b6e565b91506126ab826134bc565b604082019050919050565b60006126c3600583612b7f565b91506126ce8261350b565b600582019050919050565b6126e281612d09565b82525050565b60006126f48284612383565b915081905092915050565b600061270b8285612383565b91506127178284612383565b91508190509392505050565b600061272f8285612383565b915061273b8284612383565b9150612746826124ef565b91508190509392505050565b600061275d82612558565b91506127698286612383565b9150612774826124a9565b91506127808285612383565b915061278b82612607565b91506127978284612383565b91506127a28261259e565b9150819050949350505050565b60006127ba8261257b565b91506127c5826123d7565b91506127d18285612383565b91506127dc826124cc565b91506127e88284612383565b91506127f382612440565b91508190509392505050565b600061280a82612670565b91506128168284612383565b915081905092915050565b600061282c826126b6565b91506128388284612383565b915081905092915050565b600060208201905061285860008301846122f3565b92915050565b600060808201905061287360008301876122f3565b61288060208301866122f3565b61288d60408301856126d9565b818103606083015261289f8184612311565b905095945050505050565b60006020820190506128bf6000830184612302565b92915050565b600060208201905081810360008301526128df818461234a565b905092915050565b60006060820190508181036000830152612901818661234a565b905061291060208301856126d9565b61291d60408301846122f3565b949350505050565b6000602082019050818103600083015261293e816123b4565b9050919050565b6000602082019050818103600083015261295e816123fa565b9050919050565b6000602082019050818103600083015261297e8161241d565b9050919050565b6000602082019050818103600083015261299e81612463565b9050919050565b600060208201905081810360008301526129be81612486565b9050919050565b600060208201905081810360008301526129de81612512565b9050919050565b600060208201905081810360008301526129fe81612535565b9050919050565b60006020820190508181036000830152612a1e816125c1565b9050919050565b60006020820190508181036000830152612a3e816125e4565b9050919050565b60006020820190508181036000830152612a5e8161262a565b9050919050565b60006020820190508181036000830152612a7e8161264d565b9050919050565b60006020820190508181036000830152612a9e81612693565b9050919050565b6000602082019050612aba60008301846126d9565b92915050565b6000612aca612adb565b9050612ad68282612d87565b919050565b6000604051905090565b600067ffffffffffffffff821115612b0057612aff612ebf565b5b612b0982612eee565b9050602081019050919050565b600067ffffffffffffffff821115612b3157612b30612ebf565b5b612b3a82612eee565b9050602081019050919050565b600081519050919050565b600081519050919050565b600082825260208201905092915050565b600082825260208201905092915050565b600081905092915050565b6000612b9582612d09565b9150612ba083612d09565b9250827fffffffffffffffffffffffffffffffffffffffffffffffffffffffffffffffff03821115612bd557612bd4612e32565b5b828201905092915050565b6000612beb82612d09565b9150612bf683612d09565b925082612c0657612c05612e61565b5b828204905092915050565b6000612c1c82612d09565b9150612c2783612d09565b9250817fffffffffffffffffffffffffffffffffffffffffffffffffffffffffffffffff0483118215151615612c6057612c5f612e32565b5b828202905092915050565b6000612c7682612d09565b9150612c8183612d09565b925082821015612c9457612c93612e32565b5b828203905092915050565b6000612caa82612ce9565b9050919050565b60008115159050919050565b60007fffffffff0000000000000000000000000000000000000000000000000000000082169050919050565b600073ffffffffffffffffffffffffffffffffffffffff82169050919050565b6000819050919050565b82818337600083830152505050565b60005b83811015612d40578082015181840152602081019050612d25565b83811115612d4f576000848401525b50505050565b60006002820490506001821680612d6d57607f821691505b60208210811415612d8157612d80612e90565b5b50919050565b612d9082612eee565b810181811067ffffffffffffffff82111715612daf57612dae612ebf565b5b80604052505050565b6000612dc382612d09565b91507fffffffffffffffffffffffffffffffffffffffffffffffffffffffffffffffff821415612df657612df5612e32565b5b600182019050919050565b6000612e0c82612d09565b9150612e1783612d09565b925082612e2757612e26612e61565b5b828206905092915050565b7f4e487b7100000000000000000000000000000000000000000000000000000000600052601160045260246000fd5b7f4e487b7100000000000000000000000000000000000000000000000000000000600052601260045260246000fd5b7f4e487b7100000000000000000000000000000000000000000000000000000000600052602260045260246000fd5b7f4e487b7100000000000000000000000000000000000000000000000000000000600052604160045260246000fd5b6000601f19601f8301169050919050565b7f4552433732313a207472616e7366657220746f206e6f6e20455243373231526560008201527f63656976657220696d706c656d656e7465720000000000000000000000000000602082015250565b7f206275696c646564200000000000000000000000000000000000000000000000600082015250565b7f4552433732313a207472616e736665722066726f6d20696e636f72726563742060008201527f6f776e6572000000000000000000000000000000000000000000000000000000602082015250565b7f4552433732313a20746f6b656e20616c7265616479206d696e74656400000000600082015250565b7f2520546f74616c6c790000000000000000000000000000000000000000000000600082015250565b7f4552433732313a207472616e7366657220746f20746865207a65726f2061646460008201527f7265737300000000000000000000000000000000000000000000000000000000602082015250565b7f4552433732313a20617070726f766520746f2063616c6c657200000000000000600082015250565b7f7d2c7b22646973706c61795f74797065223a22626f6f73745f70657263656e7460008201527f616765222c2274726169745f74797065223a22636f6e74697262757465222c2260208201527f76616c7565223a00000000000000000000000000000000000000000000000000604082015250565b7f2520616e6420636f6e7472696275746564200000000000000000000000000000600082015250565b7f3c2f746578743e3c2f7376673e00000000000000000000000000000000000000600082015250565b7f4552433732313a2061646472657373207a65726f206973206e6f74206120766160008201527f6c6964206f776e65720000000000000000000000000000000000000000000000602082015250565b7f45524337323155524953746f726167653a2055524920736574206f66206e6f6e60008201527f6578697374656e7420746f6b656e000000000000000000000000000000000000602082015250565b7f7b2261747472696275746573223a5b7b22646973706c61795f74797065223a2260008201527f626f6f73745f70657263656e74616765222c2274726169745f74797065223a2260208201527f6275696c64222c2276616c7565223a0000000000000000000000000000000000604082015250565b7f496e20746869732070726f6a6563742c20596f75000000000000000000000000600082015250565b7f227d000000000000000000000000000000000000000000000000000000000000600082015250565b7f4552433732313a20617070726f76652063616c6c6572206973206e6f7420746f60008201527f6b656e206f776e6572206e6f7220617070726f76656420666f7220616c6c0000602082015250565b7f4552433732313a206d696e7420746f20746865207a65726f2061646472657373600082015250565b7f7d2c207b2274726169745f74797065223a2250726f6a656374222c2276616c7560008201527f65223a22706f6c79676f6e2d6861636b6174686f6e227d5d2c20226e616d652260208201527f3a202256697a75616c697a65436f6d6d69744e4654222c20226465736372697060408201527f74696f6e223a202276697a75616c697a6520796f757220636f6e74726962757460608201527f696f6e20696e206120776562332070726f6a656374222c2022696d616765223a60808201527f2022646174613a696d6167652f7376672b786d6c3b6261736536342c0000000060a082015250565b7f4552433732313a20696e76616c696420746f6b656e2049440000000000000000600082015250565b7f4552433732313a20617070726f76616c20746f2063757272656e74206f776e6560008201527f7200000000000000000000000000000000000000000000000000000000000000602082015250565b7f646174613a6170706c69636174696f6e2f6a736f6e3b6261736536342c000000600082015250565b7f4552433732313a2063616c6c6572206973206e6f7420746f6b656e206f776e6560008201527f72206e6f7220617070726f766564000000000000000000000000000000000000602082015250565b7f494d414745000000000000000000000000000000000000000000000000000000600082015250565b61353d81612c9f565b811461354857600080fd5b50565b61355481612cb1565b811461355f57600080fd5b50565b61356b81612cbd565b811461357657600080fd5b50565b61358281612d09565b811461358d57600080fd5b5056fe3c73766720786d6c6e733d27687474703a2f2f7777772e77332e6f72672f323030302f73766727207072657365727665417370656374526174696f3d27784d696e594d696e206d656574272076696577426f783d273020302033353020333530273e3c7374796c653e2e62617365207b2066696c6c3a2077686974653b20666f6e742d66616d696c793a2073657269663b20666f6e742d73697a653a203870783b207d3c2f7374796c653e3c726563742077696474683d273130302527206865696768743d2731303025272066696c6c3d27626c61636b27202f3e3c7465787420783d273530252720793d273530252720636c6173733d27626173652720646f6d696e616e742d626173656c696e653d276d6964646c652720746578742d616e63686f723d276d6964646c65273e416e204e465420772f20494420257320686173206265656e206d696e74656420746f2025734142434445464748494a4b4c4d4e4f505152535455565758595a6162636465666768696a6b6c6d6e6f707172737475767778797a303132333435363738392b2fa26469706673582212204a1c6f5cf78e4e0b591d0b12f75b6ca2d1c057486ea4583dacf19a9f472ac0ca64736f6c6343000804003368747470733a2f2f69636f6f6f6e2d6d6f6e6f2e636f6d2f692f69636f6e5f31343438322f69636f6e5f3134343832305f3235362e706e6768747470733a2f2f667265652d69636f6e732e6e65742f77702d636f6e74656e742f75706c6f6164732f323032312f30332f6c65697375726530322e706e6768747470733a2f2f312e62702e626c6f6773706f742e636f6d2f2d6e345a79357a6e7a7a6b512f5539795f756c39345238492f41414141414141416a68342f73447a6d55374730554d412f733830302f6b697070752e706e67",
  "linkReferences": {},
  "deployedLinkReferences": {}
}